:020000040800F2
:100000003007002065020008850E00087D0E0008FC
:10001000810E00085D040008910F00080000000038
:100020000000000000000000000000008D0E00082D
:100030006104000800000000890E0008910E00080D
:100040007F0200087F0200087F0200087F0200088C
:100050007F0200087F0200087F0200087F0200087C
:100060007F0200087F0200087F0200087F0200086C
:100070007F0200087F0200087F0200087F0200085C
:100080007F0200087F0200087F02000800000000D5
:100090000000000000000000000000007F020008D7
:1000A0007F0200087F0200087F0200087F0200082C
:1000B0007F0200087F0200087F0200087F0200081C
:1000C0007F0200087F0200087F0200087F0200080C
:1000D0007F0200087F0200087F0200080000000085
:1000E0007F0200087F0200087F0200080000000075
:1000F0000000000000000000000000007F02000877
:10010000000000007F0200087F0200087F02000854
:1001100000000000000000000000000000000000DF
:100120007F0200087F0200087F0200087F020008AB
:100130007F02000800000000000000000000000036
:100140000000000000000000000000007F02000826
:100150007F0200087F0200087F0200087F0200087B
:100160007F0200087F02000800000000000000007D
:10017000000000000000000000000000000000007F
:10018000000000007F0200080000000000000000E6
:100190007F0200087F02000800F002F800F052F829
:1001A00014A696E8000CB244B344DA4501D100F03D
:1001B00049F8BAE80F000FA696E83000A5EB040551
:1001C00004EB0607AAEB0704A7F101074FEA151590
:1001D0004FEA3414A4F10104AC4201D300F032F828
:1001E00013F0010F18BFFB1A43F0010300F001F8F0
:1001F000DBE718478C110000AC110000103A24BF57
:1002000078C878C1FAD8520724BF30C830C144BF7B
:1002100004680C6070470000704700000023002451
:1002200000250026103A28BF78C1FBD8520728BF06
:1002300030C148BF0B6070471FB501F083F81FBD88
:1002400010B510BD00F0D0F81146FFF7F5FF00F033
:10025000A1FE00F0EEF803B4FFF7F2FF03BC00F0DC
:10026000F5F800000948804709480047FEE7FEE727
:10027000FEE7FEE7FEE7FEE7FEE7FEE7FEE7FEE756
:1002800004480549054A064B70470000950E0008D2
:1002900099010008300100203007002030030020C1
:1002A0003003002053EA020C00F069802DE9F04B86
:1002B0004FF00006002B1FBFB3FA83F503FA05F4D5
:1002C00024FA05F65E4012BF1643B2FA82F502FA2E
:1002D00005F4C5F120051EBF22FA05FC44EA0C0412
:1002E000203556EA044C4FEA144418BF641C4FF002
:1002F00000084FF00009904271EB030C39D300293C
:1003000019BFB1FA81F701FA07F6B0FA80F700FADF
:1003100007F6C7F120071EBF20FA07FC46EA0C06C5
:100320002037B6FBF4FCA7EB0507103F07F01F0BC7
:10033000CBF120062CFA06F60CFA0BFB44BFB346B1
:100340000026202FA4BF5E464FF0000B5BEA060C90
:1003500008BF4FF0010B19EB0B0948EB0608ABFB8C
:10036000027C06FB02CC0BFB03CCC01B71EB0C0127
:10037000C1E70B46024641464846BDE8F08B13B53F
:10038000084318BF4FF0FF300146AFF30080BDE8CF
:100390001C4070474FF0000200B513469446964645
:1003A000203922BFA0E80C50A0E80C50B1F1200188
:1003B000BFF4F7AF090728BFA0E80C5048BF0CC036
:1003C0005DF804EB890028BF40F8042B08BF704794
:1003D00048BF20F8022B11F0804F18BF00F8012B06
:1003E0007047704770477047754600F02BF8AE466F
:1003F00005006946534620F00700854618B020B531
:10040000FFF73EFFBDE820404FF000064FF0000729
:100410004FF000084FF0000BAC46ACE8C009ACE868
:10042000C009ACE8C009ACE8C00921F007018D465D
:10043000704710B50446AFF300802046BDE8104079
:10044000FFF709BF00487047180000200149182035
:10045000ABBEFEE72600020070470000FEE700008A
:10046000704700002DE9F04F83B000F1200200F149
:100470003E4741F20005009207F1FF77C4F2020502
:1004800007224FEAB726A84208BF042200254FF0F2
:1004900000084FF00009042E38BF4FEAB72201923E
:1004A0000AE000BF09F1010908F10208B9F1100FD3
:1004B00005F1040500F0A2800F68012202FA09FE8E
:1004C00017EA0E0AEED0D1F804C003220CF003079D
:1004D0007E1E02FA08F4012E6FEA040B12D884681B
:1004E000CE6804EA0B0406FA08F6344384604468D4
:1004F00024EA0E06CCF3001404FA09F426434660FD
:1005000004E000BF032F01D103271EE0C6688C68FA
:1005100006EA0B0604FA08F42643022FC66014D13B
:100520006FF00302009E02EA590756F807C005F073
:100530001C040F220B69A2402CEA0202A3401A43BA
:10054000F251D1F804C00CF00307026807FA08F36F
:1005500002EA0B021A431CF4403F0260A2D00022C0
:1005600043F644030292C4F202031A6843F60044BD
:1005700042F480421A601A68C4F2010402F4804214
:100580000292029A29F003024FF6084C2244CFF659
:10059000FF7C52F80C3005F00C070F26BE40B34329
:1005A000019E06FA07F73B4342F80C30A2684B68FD
:1005B00042EA0A0743F60C4CDE0258BF22EA0A0759
:1005C000A760C4F2010CDCF800209E0242EA0A0790
:1005D00058BF22EA0A07CCF8007062689E0342EA1C
:1005E0000A0758BF22EA0A0767602268DB0342EA6B
:1005F0000A0758BF22EA0A07276053E703B0BDE89D
:10060000F08F0000002A08BF0904816170470000D4
:1006100040F22810C2F200000068704740F20C005F
:1006200040F22811C2F20000C2F2000100780A680C
:10063000104408607047000080B543F60040C4F2E3
:100640000200016841F400710160016841F48061B9
:100650000160016841F480710160032000F074F8CA
:100660000F2000F005F800F027F8002080BD000002
:1006700070B540F20C06C2F2000640F21401327866
:10068000C2F200014FF47A730968B3FBF2F2044638
:10069000B1FBF2F1084600F04FFB0F2C4FF00105C3
:1006A00008D838B94FF0FF3021460022002500F06D
:1006B0001FF87460284670BD82B0002043F64001E8
:1006C0000190C4F202014A6842F480424A604A68DA
:1006D00002F480420192019A0090086840F0805034
:1006E0000860086800F080500090009802B07047E1
:1006F00010B54EF60C5CCEF2000CDCF80030C3F303
:10070000022E8EF00704042C28BF0424BEF103033C
:100710004FF0FF3E0EFA04F438BF0023A143994086
:100720000EFA03F39A43114300F00F0200F1604305
:100730000901043A03F564436244002848BF02F10A
:100740000C03197010BD00004EF60C51CEF20001E2
:100750000A684FF6FF031A4060F30A2242F08060F5
:1007600040F0FD7008607047002804BF012070470A
:100770002DE9F04143F60808C4F202080446D8F80F
:10078000F8030D4600F00700814207D988F8F853B6
:10079000D8F8F80300F00700A84277D12068810755
:1007A00017D5410705D5D8F8001041F4E051C8F835
:1007B0000010010705D5D8F8001041F46041C8F8D1
:1007C0000010D8F80010A26821F0F0011143C8F819
:1007D0000010C00740D1D8F8F80300F007008542A8
:1007E00007D288F8F853D8F8F80300F00700A842B9
:1007F0004CD12068410707D5D8F80010E26821F4F1
:10080000E0511143C8F80010000708D5D8F80000DF
:10081000216920F4604040EAC100C8F8000000F0FF
:100820007DF8D8F8001041F25E32C1F30311C0F632
:100830000002515C40F2140220FA01F140F2100073
:10084000C2F200000068C2F200021160FFF710FF60
:100850000020BDE8F08100BF6068811E022907D238
:1008600058F8081C89015CBF0120BDE8F08111E047
:10087000012807D158F8081C89035CBF0120BDE896
:10088000F08107E058F8081C890703D40120BDE86F
:10089000F08100BFD8F8001021F003010843C8F828
:1008A0000000FFF7B5FE064641F28837D8F8000091
:1008B000616800F00C00B0EB810F8CD0FFF7A8FE50
:1008C000801BB842F2D90320BDE8F08140F2140049
:1008D00043F60801C2F20000C4F202010068096890
:1008E00041F26E32C1F38221C0F60002515CC84071
:1008F0007047000040F2140043F60801C2F2000005
:10090000C4F202010068096841F26E32C1F342315B
:10091000C0F60002515CC8407047000010B543F6B5
:100920000404C4F202046168C1F3810142F2004090
:10093000C0F2F400DFE801F002040A0210BD00BFBB
:1009400047F64000C0F27D1010BD00BF206821684E
:100950002368490247F64001C0F27D1100F03F02D2
:10096000C3F388105CBF42F20041C0F2F401A1FB66
:1009700000010023FFF796FC21680222C1F3014128
:1009800002EB4101B0FBF1F010BD0000002804BFF4
:10099000012070472DE9F04182B00446007843F60B
:1009A0000006C007C4F202060CD0B06800F00C00CC
:1009B000042840F081803068800303D560680028F7
:1009C00000F06881207880071BD5B06810F00C0F0C
:1009D00009D0B06800F00C00082840F087807068EB
:1009E000400200F183803068800703D5E068012869
:1009F00040F050813068216920F0F80040EAC100E1
:100A000030602078000713D4207840072AD4A569E5
:100A1000002D00F03A81B06800F00C00082840F08A
:100A2000A580012D40F00E81012002B0BDE8F081CB
:100A30006069002800F082800020C4F24720012174
:100A4000C0F8801EFFF7E4FD054600BF706F800709
:100A5000DAD4FFF7DDFD401B0228F7D9032002B0EE
:100A6000BDE8F081306C5FEAC0080AD40020019034
:100A7000306C40F080503064306C00F08050019059
:100A8000019847F20007C4F200073868C00547D450
:100A9000386840F480703860FFF7BAFD054600BF43
:100AA0003868C0053CD4FFF7B3FD401B0228F7D9D6
:100AB000032002B0BDE8F081B06800F00C00082807
:100AC00003D1706840023FF576AF61683068B1F5D8
:100AD000803F07D0B1F5A02F40F09A8040F48020ED
:100AE0003060306840F4803030609AE0E068002880
:100AF00040F20000C4F247205CD001210160FFF702
:100B000087FD0546306880073FF574AFFFF780FD2D
:100B1000401B0228F6D9032002B0BDE8F08100BFD7
:100B2000A168306F012905D0052955D140F0040096
:100B30003067306F40F00100306756E00020C4F2AB
:100B400047200021C0F8801EFFF762FD054600BF68
:100B5000706F80077FF558AFFFF75AFD401B0228E2
:100B6000F6D9032002B0BDE8F08100BF0027C4F22F
:100B7000472700203866FFF74BFD022D05460DD1B3
:100B80003068800140F18A80FFF742FD401B022857
:100B90004FF00300F4D902B0BDE8F0813068800165
:100BA00073D5FFF735FD401B02284FF00300F5D940
:100BB000F1E700BF00210160FFF72AFD054600BFF5
:100BC000306880077FF51DAFFFF722FD401B02282C
:100BD0004FF00300F4D9DEE720F001003067306FFA
:100BE000002920F0040030677AD0FFF711FD054698
:100BF00041F28837306F800700F18480FFF708FDED
:100C0000401BB842F6D9032002B0BDE8F08100BF16
:100C100020F4803030603068002920F4802030607B
:100C20007AD0FFF7F5FC0546306880033FF5CAAE81
:100C3000FFF7EEFC401B6428F6D9032002B0BDE8A4
:100C4000F08100BF7068E16900F480028A4221D11E
:100C5000216A00F03F028A421CD147F6C071626AE5
:100C60000140B1EB821F15D1A16A4FF6FF73C90392
:100C7000994300F44032A1F580318A420AD1E16AF9
:100C800000F07060B0EB016F04D1002002B0BDE84D
:100C9000F08100BF012002B0BDE8F08104F11C0525
:100CA0002FCD084340EA8210D9034FF6FF729143DB
:100CB000A1F5803140EA0560084370600120386684
:100CC000FFF7A6FC044600BF30688001DDD4FFF7C3
:100CD0009FFC001B02284FF00300F5D95BE700BF23
:100CE000FFF796FC054641F2883700BF306F80075A
:100CF00008D5FFF78DFC401BB8424FF00300F5D933
:100D000049E700BFB8F1000F3FF581AE306C20F02D
:100D1000805030647BE600BFFFF77AFC054600BFD9
:100D2000306880037FF54EAEFFF772FC401B6428ED
:100D30004FF00300F4D92EE7411E0020B0EB116FF5
:100D40001CBF012070474EF21002CEF2000251602B
:100D50004EF62351CEF20001F0230B700721906074
:100D600011607047002804BF0120704710B5044689
:100D700090F8410028B9002084F84000204600F097
:100D800021F8242084F841002068C16821F4005132
:100D9000C160204600F088F82068016921F4904184
:100DA0000161416921F02A014161C16841F40051AA
:100DB000C16000202021606484F8411084F8421052
:100DC000606310BD80B586B0006844F20042C4F292
:100DD000000200219042CDE90411CDE902110191F8
:100DE00022D041F20001C4F20101884244D1002026
:100DF00043F630010090C4F202014A6942F0100249
:100E00004A614A6902F010020092009A0090086854
:100E100040F001000860086800F0010000900098B0
:100E20004FF4C06019E000BF43F630000091C4F2F7
:100E30000200026942F400320261026902F40032E7
:100E40000092009A0091016841F001010160006880
:100E500000F00100009000980C2001900220029008
:100E60000020039003200490072005900020C4F286
:100E7000020001A9FFF7F6FA06B080BDFEE7000008
:100E8000FEE70000FEE7000070470000704700002A
:100E9000FFF7C4BB4EF68850CEF20000016841F463
:100EA0007001016070470000B0B50446006804F1AD
:100EB00008030ECB0569194325F440552A43026106
:100EC0006269E3691143C268194349F20C639A43AA
:100ED0001143C1604169A26921F4407141F20043AC
:100EE000114340F48062C4F201039A42416103D18C
:100EF000FFF700FD02E000BFFFF7E8FCE1694FF6F5
:100F00009C7563681922C0F6FF75B1F5004FA0FB10
:100F100002011FD15A00DB0FFFF7C4F948F21F513D
:100F2000C5F2EB11A0FB01235A0905F1805302FB26
:100F30000300322303EBC000A0FB01014FF4F87063
:100F400000EA111000EB0210C1F3421108442168BD
:100F50008860B0BD9A009B0FFFF7A4F948F21F51BB
:100F6000C5F2EB11A0FB01235A0902FB0500322355
:100F700003EB0010A0FB0101F02000EA511000EB90
:100F80000210C1F34311084421688860B0BD00001D
:100F9000FEE7000094B043F63006C4F20206FFF705
:100FA0004BFB08AC20463021FFF7F4F900250795EC
:100FB000CDE90555CDE903550295306940F08050E3
:100FC0003061306900F080500290029847F20000D2
:100FD0000295C4F20000016841F4404101600068DC
:100FE00000F44040029002980220089001200B90EB
:100FF00010200C9020460E95FFF7C8FC10B172B679
:10100000FEE700BF0F20CDE9030503A80021CDE9CD
:1010100005550795FFF7A8FB10B172B6FEE700BFB4
:1010200000250C95CDE90A55CDE9085503953068A2
:10103000002440F0040030603068C4F2020400F084
:101040000400039003980395306804F5006A40F0AB
:101050000100306030684FF4005100F0010003904F
:101060000398504600224FF40056FFF7CBFA204673
:10107000012100220127FFF7C5FACDE9086708AE74
:1010800050463146CDE90A55FFF7ECF92046314686
:10109000CDE90877CDE90A55FFF7E4F940F2780683
:1010A000C2F20006A4F57041304640F8201F4FF40C
:1010B00016574FF00C08C0E90175C0E90355C0E9A7
:1010C0000585C561FFF74EFE10B172B6FEE700BFA1
:1010D00044F2004940F2E000C4F20009C2F200000C
:1010E000C0E90097C0E90255C0E90458C0E90655B7
:1010F000FFF738FE10B172B6FEE700BFCDF804A0CE
:1011000040F2000A41F2000541F2040BC2F2000A6B
:101110000027CFF6FF75CFF6FF7B07E0307901306F
:1011200030714FF0010886F8038000BFFFF770FAB6
:10113000B168401AB0F5FA7F12D3D9F80000000662
:101140000ED53078411C5044CAB20079052A31705E
:10115000C9F8040004D33770FFF75AFAB06000BF33
:10116000605980060AD554F80B00B1784A1CD3B2F6
:101170003144B270102B087428BFB770F07804287F
:10118000D4D8DFE800F003AB83A36B007078B178AC
:101190008842CBD001984FF400510122FFF732FA78
:1011A0007078421C3044007CD1B20F29A0F132018A
:1011B00088BF00224229727000F2B68041F27A3074
:1011C000C0F60000DFE811F0B600B000B000B000DB
:1011D000B000B000B000B000B000B000B000B0008F
:1011E000B000B000B000B000B000B000B0004400EB
:1011F000B000B000B000B000B000B000B000B0006F
:10120000B000B000B000B000B000AA00BA00B0005A
:10121000B000B000B000B000B000B000B000B0004E
:10122000B000B000B000B000B000B000B0004400AA
:10123000B000B000B000B000B000B000B000B0002E
:10124000B000B000B000B000B000AA00BA0000BF0B
:1012500041F27E30C0F6000070E000BFFFF7D8F921
:10126000F168401AB0F5167FFFF460AF7078B1787E
:1012700088424DD101984FF4005100224FF00008F0
:10128000FFF7C0F986F8038050E700BFDAF80000E6
:1012900031794FF41677405C2E2808BFC827FFF736
:1012A000B7F9F168401AB8424FF00007FFF43EAFBB
:1012B000204601210022FFF7A5F9FFF7A9F94FF019
:1012C0000308F06086F8038030E700BFFFF7A0F95D
:1012D000F168401AC828FFF429AF1FE7DAF80000C8
:1012E0003179405C60B1204601210122FFF78AF983
:1012F000FFF78EF94FF00208F06086F8038015E7DB
:10130000FFF786F94FF00408F06086F803800DE7D8
:101310004FF0000886F8038008E700BF41F27C30F8
:10132000C0F600000AE000BF41F27F30C0F60000C6
:1013300004E000BF41F27630C0F60000CAF80000B9
:101340003771EEE6F1EE100A4FF6FF71C0F2C031D0
:1013500020EA010040F04070E1EE100A7047000002
:101360000000000000000102030406070809000055
:101370000000010203042E2E2D2D2D002E2E2E00F6
:10138000A01300080000002018000000FC01000865
:10139000B813000818000020180700001C020008FD
:1013A0007F130008546573743200000001000000D0
:0813B000100000000024F4000D
:040000050800019955
:00000001FF
